{
  "_format": "hh-sol-artifact-1",
  "contractName": "SphericalTokenInVacuum",
  "sourceName": "contracts/Token.sol",
  "abi": [
    {
      "inputs": [],
      "stateMutability": "nonpayable",
      "type": "constructor"
    },
    {
      "anonymous": false,
      "inputs": [
        {
          "indexed": true,
          "internalType": "address",
          "name": "owner",
          "type": "address"
        },
        {
          "indexed": true,
          "internalType": "address",
          "name": "spender",
          "type": "address"
        },
        {
          "indexed": false,
          "internalType": "uint256",
          "name": "value",
          "type": "uint256"
        }
      ],
      "name": "Approval",
      "type": "event"
    },
    {
      "anonymous": false,
      "inputs": [
        {
          "indexed": true,
          "internalType": "address",
          "name": "previousOwner",
          "type": "address"
        },
        {
          "indexed": true,
          "internalType": "address",
          "name": "newOwner",
          "type": "address"
        }
      ],
      "name": "OwnershipTransferred",
      "type": "event"
    },
    {
      "anonymous": false,
      "inputs": [
        {
          "indexed": false,
          "internalType": "uint256",
          "name": "id",
          "type": "uint256"
        },
        {
          "indexed": false,
          "internalType": "address",
          "name": "owner",
          "type": "address"
        }
      ],
      "name": "PotatoAdded",
      "type": "event"
    },
    {
      "anonymous": false,
      "inputs": [
        {
          "indexed": false,
          "internalType": "uint256",
          "name": "id",
          "type": "uint256"
        },
        {
          "indexed": false,
          "internalType": "address",
          "name": "owner",
          "type": "address"
        }
      ],
      "name": "PotatoCooked",
      "type": "event"
    },
    {
      "anonymous": false,
      "inputs": [
        {
          "indexed": true,
          "internalType": "address",
          "name": "from",
          "type": "address"
        },
        {
          "indexed": true,
          "internalType": "address",
          "name": "to",
          "type": "address"
        },
        {
          "indexed": false,
          "internalType": "uint256",
          "name": "value",
          "type": "uint256"
        }
      ],
      "name": "Transfer",
      "type": "event"
    },
    {
      "inputs": [
        {
          "internalType": "string",
          "name": "name",
          "type": "string"
        },
        {
          "internalType": "uint32",
          "name": "weight",
          "type": "uint32"
        }
      ],
      "name": "addPotato",
      "outputs": [],
      "stateMutability": "nonpayable",
      "type": "function"
    },
    {
      "inputs": [
        {
          "internalType": "address",
          "name": "owner",
          "type": "address"
        },
        {
          "internalType": "address",
          "name": "spender",
          "type": "address"
        }
      ],
      "name": "allowance",
      "outputs": [
        {
          "internalType": "uint256",
          "name": "",
          "type": "uint256"
        }
      ],
      "stateMutability": "view",
      "type": "function"
    },
    {
      "inputs": [
        {
          "internalType": "address",
          "name": "spender",
          "type": "address"
        },
        {
          "internalType": "uint256",
          "name": "amount",
          "type": "uint256"
        }
      ],
      "name": "approve",
      "outputs": [
        {
          "internalType": "bool",
          "name": "",
          "type": "bool"
        }
      ],
      "stateMutability": "nonpayable",
      "type": "function"
    },
    {
      "inputs": [
        {
          "internalType": "address",
          "name": "account",
          "type": "address"
        }
      ],
      "name": "balanceOf",
      "outputs": [
        {
          "internalType": "uint256",
          "name": "",
          "type": "uint256"
        }
      ],
      "stateMutability": "view",
      "type": "function"
    },
    {
      "inputs": [
        {
          "internalType": "uint256",
          "name": "id",
          "type": "uint256"
        }
      ],
      "name": "cookPotato",
      "outputs": [],
      "stateMutability": "nonpayable",
      "type": "function"
    },
    {
      "inputs": [],
      "name": "decimals",
      "outputs": [
        {
          "internalType": "uint8",
          "name": "",
          "type": "uint8"
        }
      ],
      "stateMutability": "view",
      "type": "function"
    },
    {
      "inputs": [
        {
          "internalType": "address",
          "name": "spender",
          "type": "address"
        },
        {
          "internalType": "uint256",
          "name": "subtractedValue",
          "type": "uint256"
        }
      ],
      "name": "decreaseAllowance",
      "outputs": [
        {
          "internalType": "bool",
          "name": "",
          "type": "bool"
        }
      ],
      "stateMutability": "nonpayable",
      "type": "function"
    },
    {
      "inputs": [
        {
          "internalType": "address",
          "name": "spender",
          "type": "address"
        },
        {
          "internalType": "uint256",
          "name": "addedValue",
          "type": "uint256"
        }
      ],
      "name": "increaseAllowance",
      "outputs": [
        {
          "internalType": "bool",
          "name": "",
          "type": "bool"
        }
      ],
      "stateMutability": "nonpayable",
      "type": "function"
    },
    {
      "inputs": [
        {
          "internalType": "address",
          "name": "account",
          "type": "address"
        },
        {
          "internalType": "uint256",
          "name": "amount",
          "type": "uint256"
        }
      ],
      "name": "mint",
      "outputs": [],
      "stateMutability": "nonpayable",
      "type": "function"
    },
    {
      "inputs": [],
      "name": "name",
      "outputs": [
        {
          "internalType": "string",
          "name": "",
          "type": "string"
        }
      ],
      "stateMutability": "view",
      "type": "function"
    },
    {
      "inputs": [],
      "name": "owner",
      "outputs": [
        {
          "internalType": "address",
          "name": "",
          "type": "address"
        }
      ],
      "stateMutability": "view",
      "type": "function"
    },
    {
      "inputs": [],
      "name": "renounceOwnership",
      "outputs": [],
      "stateMutability": "nonpayable",
      "type": "function"
    },
    {
      "inputs": [
        {
          "internalType": "uint256",
          "name": "",
          "type": "uint256"
        }
      ],
      "name": "sack",
      "outputs": [
        {
          "internalType": "uint256",
          "name": "id",
          "type": "uint256"
        },
        {
          "internalType": "address",
          "name": "owner",
          "type": "address"
        },
        {
          "internalType": "string",
          "name": "name",
          "type": "string"
        },
        {
          "internalType": "uint32",
          "name": "weight",
          "type": "uint32"
        }
      ],
      "stateMutability": "view",
      "type": "function"
    },
    {
      "inputs": [],
      "name": "symbol",
      "outputs": [
        {
          "internalType": "string",
          "name": "",
          "type": "string"
        }
      ],
      "stateMutability": "view",
      "type": "function"
    },
    {
      "inputs": [],
      "name": "totalSupply",
      "outputs": [
        {
          "internalType": "uint256",
          "name": "",
          "type": "uint256"
        }
      ],
      "stateMutability": "view",
      "type": "function"
    },
    {
      "inputs": [
        {
          "internalType": "address",
          "name": "to",
          "type": "address"
        },
        {
          "internalType": "uint256",
          "name": "amount",
          "type": "uint256"
        }
      ],
      "name": "transfer",
      "outputs": [
        {
          "internalType": "bool",
          "name": "",
          "type": "bool"
        }
      ],
      "stateMutability": "nonpayable",
      "type": "function"
    },
    {
      "inputs": [
        {
          "internalType": "address",
          "name": "from",
          "type": "address"
        },
        {
          "internalType": "address",
          "name": "to",
          "type": "address"
        },
        {
          "internalType": "uint256",
          "name": "amount",
          "type": "uint256"
        }
      ],
      "name": "transferFrom",
      "outputs": [
        {
          "internalType": "bool",
          "name": "",
          "type": "bool"
        }
      ],
      "stateMutability": "nonpayable",
      "type": "function"
    },
    {
      "inputs": [
        {
          "internalType": "address",
          "name": "newOwner",
          "type": "address"
        }
      ],
      "name": "transferOwnership",
      "outputs": [],
      "stateMutability": "nonpayable",
      "type": "function"
    }
  ],
  "bytecode": "0x608060405260006007553480156200001657600080fd5b506040518060400160405280601681526020017f53706865726963616c546f6b656e496e56616375756d000000000000000000008152506040518060400160405280600381526020017f5354560000000000000000000000000000000000000000000000000000000000815250620000a3620000976200010160201b60201c565b6200010960201b60201c565b8160049081620000b49190620005bf565b508060059081620000c69190620005bf565b505050620000fb336012600a620000de919062000829565b6311de784a620000ef91906200087a565b620001cd60201b60201c565b620009b1565b600033905090565b60008060009054906101000a900473ffffffffffffffffffffffffffffffffffffffff169050816000806101000a81548173ffffffffffffffffffffffffffffffffffffffff021916908373ffffffffffffffffffffffffffffffffffffffff1602179055508173ffffffffffffffffffffffffffffffffffffffff168173ffffffffffffffffffffffffffffffffffffffff167f8be0079c531659141344cd1fd0a4f28419497f9722a3daafe3b4186f6b6457e060405160405180910390a35050565b600073ffffffffffffffffffffffffffffffffffffffff168273ffffffffffffffffffffffffffffffffffffffff16036200023f576040517f08c379a0000000000000000000000000000000000000000000000000000000008152600401620002369062000926565b60405180910390fd5b62000253600083836200033b60201b60201c565b806003600082825462000267919062000948565b9250508190555080600160008473ffffffffffffffffffffffffffffffffffffffff1673ffffffffffffffffffffffffffffffffffffffff168152602001908152602001600020600082825401925050819055508173ffffffffffffffffffffffffffffffffffffffff16600073ffffffffffffffffffffffffffffffffffffffff167fddf252ad1be2c89b69c2b068fc378daa952ba7f163c4a11628f55a4df523b3ef836040516200031b919062000994565b60405180910390a362000337600083836200034060201b60201c565b5050565b505050565b505050565b600081519050919050565b7f4e487b7100000000000000000000000000000000000000000000000000000000600052604160045260246000fd5b7f4e487b7100000000000000000000000000000000000000000000000000000000600052602260045260246000fd5b60006002820490506001821680620003c757607f821691505b602082108103620003dd57620003dc6200037f565b5b50919050565b60008190508160005260206000209050919050565b60006020601f8301049050919050565b600082821b905092915050565b600060088302620004477fffffffffffffffffffffffffffffffffffffffffffffffffffffffffffffffff8262000408565b62000453868362000408565b95508019841693508086168417925050509392505050565b6000819050919050565b6000819050919050565b6000620004a06200049a62000494846200046b565b62000475565b6200046b565b9050919050565b6000819050919050565b620004bc836200047f565b620004d4620004cb82620004a7565b84845462000415565b825550505050565b600090565b620004eb620004dc565b620004f8818484620004b1565b505050565b5b81811015620005205762000514600082620004e1565b600181019050620004fe565b5050565b601f8211156200056f576200053981620003e3565b6200054484620003f8565b8101602085101562000554578190505b6200056c6200056385620003f8565b830182620004fd565b50505b505050565b600082821c905092915050565b6000620005946000198460080262000574565b1980831691505092915050565b6000620005af838362000581565b9150826002028217905092915050565b620005ca8262000345565b67ffffffffffffffff811115620005e657620005e562000350565b5b620005f28254620003ae565b620005ff82828562000524565b600060209050601f83116001811462000637576000841562000622578287015190505b6200062e8582620005a1565b8655506200069e565b601f1984166200064786620003e3565b60005b8281101562000671578489015182556001820191506020850194506020810190506200064a565b868310156200069157848901516200068d601f89168262000581565b8355505b6001600288020188555050505b505050505050565b7f4e487b7100000000000000000000000000000000000000000000000000000000600052601160045260246000fd5b60008160011c9050919050565b6000808291508390505b600185111562000734578086048111156200070c576200070b620006a6565b5b60018516156200071c5780820291505b80810290506200072c85620006d5565b9450620006ec565b94509492505050565b6000826200074f576001905062000822565b816200075f576000905062000822565b81600181146200077857600281146200078357620007b9565b600191505062000822565b60ff841115620007985762000797620006a6565b5b8360020a915084821115620007b257620007b1620006a6565b5b5062000822565b5060208310610133831016604e8410600b8410161715620007f35782820a905083811115620007ed57620007ec620006a6565b5b62000822565b620008028484846001620006e2565b925090508184048111156200081c576200081b620006a6565b5b81810290505b9392505050565b600062000836826200046b565b915062000843836200046b565b9250620008727fffffffffffffffffffffffffffffffffffffffffffffffffffffffffffffffff84846200073d565b905092915050565b600062000887826200046b565b915062000894836200046b565b9250828202620008a4816200046b565b91508282048414831517620008be57620008bd620006a6565b5b5092915050565b600082825260208201905092915050565b7f45524332303a206d696e7420746f20746865207a65726f206164647265737300600082015250565b60006200090e601f83620008c5565b91506200091b82620008d6565b602082019050919050565b600060208201905081810360008301526200094181620008ff565b9050919050565b600062000955826200046b565b915062000962836200046b565b92508282019050808211156200097d576200097c620006a6565b5b92915050565b6200098e816200046b565b82525050565b6000602082019050620009ab600083018462000983565b92915050565b6121fa80620009c16000396000f3fe608060405234801561001057600080fd5b50600436106101165760003560e01c8063715018a6116100a257806395d89b411161007157806395d89b41146102e4578063a457c2d714610302578063a9059cbb14610332578063dd62ed3e14610362578063f2fde38b1461039257610116565b8063715018a61461026d5780638da5cb5b146102775780638e122dda146102955780638fdeec46146102c857610116565b8063313ce567116100e9578063313ce567146101b757806339509351146101d557806340c10f1914610205578063603ef22c1461022157806370a082311461023d57610116565b806306fdde031461011b578063095ea7b31461013957806318160ddd1461016957806323b872dd14610187575b600080fd5b6101236103ae565b6040516101309190611384565b60405180910390f35b610153600480360381019061014e919061144e565b610440565b60405161016091906114a9565b60405180910390f35b610171610463565b60405161017e91906114d3565b60405180910390f35b6101a1600480360381019061019c91906114ee565b61046d565b6040516101ae91906114a9565b60405180910390f35b6101bf61049c565b6040516101cc919061155d565b60405180910390f35b6101ef60048036038101906101ea919061144e565b6104a5565b6040516101fc91906114a9565b60405180910390f35b61021f600480360381019061021a919061144e565b6104dc565b005b61023b60048036038101906102369190611578565b6104f2565b005b610257600480360381019061025291906115a5565b61063e565b60405161026491906114d3565b60405180910390f35b610275610687565b005b61027f61069b565b60405161028c91906115e1565b60405180910390f35b6102af60048036038101906102aa9190611578565b6106c4565b6040516102bf949392919061161b565b60405180910390f35b6102e260048036038101906102dd91906117c8565b6107ac565b005b6102ec6108e8565b6040516102f99190611384565b60405180910390f35b61031c6004803603810190610317919061144e565b61097a565b60405161032991906114a9565b60405180910390f35b61034c6004803603810190610347919061144e565b6109f1565b60405161035991906114a9565b60405180910390f35b61037c60048036038101906103779190611824565b610a14565b60405161038991906114d3565b60405180910390f35b6103ac60048036038101906103a791906115a5565b610a9b565b005b6060600480546103bd90611893565b80601f01602080910402602001604051908101604052809291908181526020018280546103e990611893565b80156104365780601f1061040b57610100808354040283529160200191610436565b820191906000526020600020905b81548152906001019060200180831161041957829003601f168201915b5050505050905090565b60008061044b610b1e565b9050610458818585610b26565b600191505092915050565b6000600354905090565b600080610478610b1e565b9050610485858285610cef565b610490858585610d7b565b60019150509392505050565b60006012905090565b6000806104b0610b1e565b90506104d18185856104c28589610a14565b6104cc91906118f3565b610b26565b600191505092915050565b6104e4610ff4565b6104ee8282611072565b5050565b3373ffffffffffffffffffffffffffffffffffffffff166006600083815260200190815260200160002060010160009054906101000a900473ffffffffffffffffffffffffffffffffffffffff1673ffffffffffffffffffffffffffffffffffffffff1614610596576040517f08c379a000000000000000000000000000000000000000000000000000000000815260040161058d90611973565b60405180910390fd5b600660008281526020019081526020016000206000808201600090556001820160006101000a81549073ffffffffffffffffffffffffffffffffffffffff02191690556002820160006105e99190611297565b6003820160006101000a81549063ffffffff021916905550507faaa75157ad6e815e405bcd38cbde22fc56dde90acecc5b9b74d83870fc63bf928133604051610633929190611993565b60405180910390a150565b6000600160008373ffffffffffffffffffffffffffffffffffffffff1673ffffffffffffffffffffffffffffffffffffffff168152602001908152602001600020549050919050565b61068f610ff4565b61069960006111c9565b565b60008060009054906101000a900473ffffffffffffffffffffffffffffffffffffffff16905090565b60066020528060005260406000206000915090508060000154908060010160009054906101000a900473ffffffffffffffffffffffffffffffffffffffff169080600201805461071390611893565b80601f016020809104026020016040519081016040528092919081815260200182805461073f90611893565b801561078c5780601f106107615761010080835404028352916020019161078c565b820191906000526020600020905b81548152906001019060200180831161076f57829003601f168201915b5050505050908060030160009054906101000a900463ffffffff16905084565b604051806080016040528060075481526020013373ffffffffffffffffffffffffffffffffffffffff1681526020018381526020018263ffffffff168152506006600060075481526020019081526020016000206000820151816000015560208201518160010160006101000a81548173ffffffffffffffffffffffffffffffffffffffff021916908373ffffffffffffffffffffffffffffffffffffffff16021790555060408201518160020190816108669190611b68565b5060608201518160030160006101000a81548163ffffffff021916908363ffffffff1602179055509050507f804e9346c8a758abac3264899baf691abd9ea25519c1880ea8d379f4a6db334a600754336040516108c4929190611993565b60405180910390a1600760008154809291906108df90611c3a565b91905055505050565b6060600580546108f790611893565b80601f016020809104026020016040519081016040528092919081815260200182805461092390611893565b80156109705780601f1061094557610100808354040283529160200191610970565b820191906000526020600020905b81548152906001019060200180831161095357829003601f168201915b5050505050905090565b600080610985610b1e565b905060006109938286610a14565b9050838110156109d8576040517f08c379a00000000000000000000000000000000000000000000000000000000081526004016109cf90611cf4565b60405180910390fd5b6109e58286868403610b26565b60019250505092915050565b6000806109fc610b1e565b9050610a09818585610d7b565b600191505092915050565b6000600260008473ffffffffffffffffffffffffffffffffffffffff1673ffffffffffffffffffffffffffffffffffffffff16815260200190815260200160002060008373ffffffffffffffffffffffffffffffffffffffff1673ffffffffffffffffffffffffffffffffffffffff16815260200190815260200160002054905092915050565b610aa3610ff4565b600073ffffffffffffffffffffffffffffffffffffffff168173ffffffffffffffffffffffffffffffffffffffff1603610b12576040517f08c379a0000000000000000000000000000000000000000000000000000000008152600401610b0990611d86565b60405180910390fd5b610b1b816111c9565b50565b600033905090565b600073ffffffffffffffffffffffffffffffffffffffff168373ffffffffffffffffffffffffffffffffffffffff1603610b95576040517f08c379a0000000000000000000000000000000000000000000000000000000008152600401610b8c90611e18565b60405180910390fd5b600073ffffffffffffffffffffffffffffffffffffffff168273ffffffffffffffffffffffffffffffffffffffff1603610c04576040517f08c379a0000000000000000000000000000000000000000000000000000000008152600401610bfb90611eaa565b60405180910390fd5b80600260008573ffffffffffffffffffffffffffffffffffffffff1673ffffffffffffffffffffffffffffffffffffffff16815260200190815260200160002060008473ffffffffffffffffffffffffffffffffffffffff1673ffffffffffffffffffffffffffffffffffffffff168152602001908152602001600020819055508173ffffffffffffffffffffffffffffffffffffffff168373ffffffffffffffffffffffffffffffffffffffff167f8c5be1e5ebec7d5bd14f71427d1e84f3dd0314c0f7b2291e5b200ac8c7c3b92583604051610ce291906114d3565b60405180910390a3505050565b6000610cfb8484610a14565b90507fffffffffffffffffffffffffffffffffffffffffffffffffffffffffffffffff8114610d755781811015610d67576040517f08c379a0000000000000000000000000000000000000000000000000000000008152600401610d5e90611f16565b60405180910390fd5b610d748484848403610b26565b5b50505050565b600073ffffffffffffffffffffffffffffffffffffffff168373ffffffffffffffffffffffffffffffffffffffff1603610dea576040517f08c379a0000000000000000000000000000000000000000000000000000000008152600401610de190611fa8565b60405180910390fd5b600073ffffffffffffffffffffffffffffffffffffffff168273ffffffffffffffffffffffffffffffffffffffff1603610e59576040517f08c379a0000000000000000000000000000000000000000000000000000000008152600401610e509061203a565b60405180910390fd5b610e6483838361128d565b6000600160008573ffffffffffffffffffffffffffffffffffffffff1673ffffffffffffffffffffffffffffffffffffffff16815260200190815260200160002054905081811015610eeb576040517f08c379a0000000000000000000000000000000000000000000000000000000008152600401610ee2906120cc565b60405180910390fd5b818103600160008673ffffffffffffffffffffffffffffffffffffffff1673ffffffffffffffffffffffffffffffffffffffff1681526020019081526020016000208190555081600160008573ffffffffffffffffffffffffffffffffffffffff1673ffffffffffffffffffffffffffffffffffffffff168152602001908152602001600020600082825401925050819055508273ffffffffffffffffffffffffffffffffffffffff168473ffffffffffffffffffffffffffffffffffffffff167fddf252ad1be2c89b69c2b068fc378daa952ba7f163c4a11628f55a4df523b3ef84604051610fdb91906114d3565b60405180910390a3610fee848484611292565b50505050565b610ffc610b1e565b73ffffffffffffffffffffffffffffffffffffffff1661101a61069b565b73ffffffffffffffffffffffffffffffffffffffff1614611070576040517f08c379a000000000000000000000000000000000000000000000000000000000815260040161106790612138565b60405180910390fd5b565b600073ffffffffffffffffffffffffffffffffffffffff168273ffffffffffffffffffffffffffffffffffffffff16036110e1576040517f08c379a00000000000000000000000000000000000000000000000000000000081526004016110d8906121a4565b60405180910390fd5b6110ed6000838361128d565b80600360008282546110ff91906118f3565b9250508190555080600160008473ffffffffffffffffffffffffffffffffffffffff1673ffffffffffffffffffffffffffffffffffffffff168152602001908152602001600020600082825401925050819055508173ffffffffffffffffffffffffffffffffffffffff16600073ffffffffffffffffffffffffffffffffffffffff167fddf252ad1be2c89b69c2b068fc378daa952ba7f163c4a11628f55a4df523b3ef836040516111b191906114d3565b60405180910390a36111c560008383611292565b5050565b60008060009054906101000a900473ffffffffffffffffffffffffffffffffffffffff169050816000806101000a81548173ffffffffffffffffffffffffffffffffffffffff021916908373ffffffffffffffffffffffffffffffffffffffff1602179055508173ffffffffffffffffffffffffffffffffffffffff168173ffffffffffffffffffffffffffffffffffffffff167f8be0079c531659141344cd1fd0a4f28419497f9722a3daafe3b4186f6b6457e060405160405180910390a35050565b505050565b505050565b5080546112a390611893565b6000825580601f106112b557506112d4565b601f0160209004906000526020600020908101906112d391906112d7565b5b50565b5b808211156112f05760008160009055506001016112d8565b5090565b600081519050919050565b600082825260208201905092915050565b60005b8381101561132e578082015181840152602081019050611313565b60008484015250505050565b6000601f19601f8301169050919050565b6000611356826112f4565b61136081856112ff565b9350611370818560208601611310565b6113798161133a565b840191505092915050565b6000602082019050818103600083015261139e818461134b565b905092915050565b6000604051905090565b600080fd5b600080fd5b600073ffffffffffffffffffffffffffffffffffffffff82169050919050565b60006113e5826113ba565b9050919050565b6113f5816113da565b811461140057600080fd5b50565b600081359050611412816113ec565b92915050565b6000819050919050565b61142b81611418565b811461143657600080fd5b50565b60008135905061144881611422565b92915050565b60008060408385031215611465576114646113b0565b5b600061147385828601611403565b925050602061148485828601611439565b9150509250929050565b60008115159050919050565b6114a38161148e565b82525050565b60006020820190506114be600083018461149a565b92915050565b6114cd81611418565b82525050565b60006020820190506114e860008301846114c4565b92915050565b600080600060608486031215611507576115066113b0565b5b600061151586828701611403565b935050602061152686828701611403565b925050604061153786828701611439565b9150509250925092565b600060ff82169050919050565b61155781611541565b82525050565b6000602082019050611572600083018461154e565b92915050565b60006020828403121561158e5761158d6113b0565b5b600061159c84828501611439565b91505092915050565b6000602082840312156115bb576115ba6113b0565b5b60006115c984828501611403565b91505092915050565b6115db816113da565b82525050565b60006020820190506115f660008301846115d2565b92915050565b600063ffffffff82169050919050565b611615816115fc565b82525050565b600060808201905061163060008301876114c4565b61163d60208301866115d2565b818103604083015261164f818561134b565b905061165e606083018461160c565b95945050505050565b600080fd5b600080fd5b7f4e487b7100000000000000000000000000000000000000000000000000000000600052604160045260246000fd5b6116a98261133a565b810181811067ffffffffffffffff821117156116c8576116c7611671565b5b80604052505050565b60006116db6113a6565b90506116e782826116a0565b919050565b600067ffffffffffffffff82111561170757611706611671565b5b6117108261133a565b9050602081019050919050565b82818337600083830152505050565b600061173f61173a846116ec565b6116d1565b90508281526020810184848401111561175b5761175a61166c565b5b61176684828561171d565b509392505050565b600082601f83011261178357611782611667565b5b813561179384826020860161172c565b91505092915050565b6117a5816115fc565b81146117b057600080fd5b50565b6000813590506117c28161179c565b92915050565b600080604083850312156117df576117de6113b0565b5b600083013567ffffffffffffffff8111156117fd576117fc6113b5565b5b6118098582860161176e565b925050602061181a858286016117b3565b9150509250929050565b6000806040838503121561183b5761183a6113b0565b5b600061184985828601611403565b925050602061185a85828601611403565b9150509250929050565b7f4e487b7100000000000000000000000000000000000000000000000000000000600052602260045260246000fd5b600060028204905060018216806118ab57607f821691505b6020821081036118be576118bd611864565b5b50919050565b7f4e487b7100000000000000000000000000000000000000000000000000000000600052601160045260246000fd5b60006118fe82611418565b915061190983611418565b9250828201905080821115611921576119206118c4565b5b92915050565b7f43616e20636f6f6b206f6e6c7920796f7572206f776e20706f7461746f657321600082015250565b600061195d6020836112ff565b915061196882611927565b602082019050919050565b6000602082019050818103600083015261198c81611950565b9050919050565b60006040820190506119a860008301856114c4565b6119b560208301846115d2565b9392505050565b60008190508160005260206000209050919050565b60006020601f8301049050919050565b600082821b905092915050565b600060088302611a1e7fffffffffffffffffffffffffffffffffffffffffffffffffffffffffffffffff826119e1565b611a2886836119e1565b95508019841693508086168417925050509392505050565b6000819050919050565b6000611a65611a60611a5b84611418565b611a40565b611418565b9050919050565b6000819050919050565b611a7f83611a4a565b611a93611a8b82611a6c565b8484546119ee565b825550505050565b600090565b611aa8611a9b565b611ab3818484611a76565b505050565b5b81811015611ad757611acc600082611aa0565b600181019050611ab9565b5050565b601f821115611b1c57611aed816119bc565b611af6846119d1565b81016020851015611b05578190505b611b19611b11856119d1565b830182611ab8565b50505b505050565b600082821c905092915050565b6000611b3f60001984600802611b21565b1980831691505092915050565b6000611b588383611b2e565b9150826002028217905092915050565b611b71826112f4565b67ffffffffffffffff811115611b8a57611b89611671565b5b611b948254611893565b611b9f828285611adb565b600060209050601f831160018114611bd25760008415611bc0578287015190505b611bca8582611b4c565b865550611c32565b601f198416611be0866119bc565b60005b82811015611c0857848901518255600182019150602085019450602081019050611be3565b86831015611c255784890151611c21601f891682611b2e565b8355505b6001600288020188555050505b505050505050565b6000611c4582611418565b91507fffffffffffffffffffffffffffffffffffffffffffffffffffffffffffffffff8203611c7757611c766118c4565b5b600182019050919050565b7f45524332303a2064656372656173656420616c6c6f77616e63652062656c6f7760008201527f207a65726f000000000000000000000000000000000000000000000000000000602082015250565b6000611cde6025836112ff565b9150611ce982611c82565b604082019050919050565b60006020820190508181036000830152611d0d81611cd1565b9050919050565b7f4f776e61626c653a206e6577206f776e657220697320746865207a65726f206160008201527f6464726573730000000000000000000000000000000000000000000000000000602082015250565b6000611d706026836112ff565b9150611d7b82611d14565b604082019050919050565b60006020820190508181036000830152611d9f81611d63565b9050919050565b7f45524332303a20617070726f76652066726f6d20746865207a65726f2061646460008201527f7265737300000000000000000000000000000000000000000000000000000000602082015250565b6000611e026024836112ff565b9150611e0d82611da6565b604082019050919050565b60006020820190508181036000830152611e3181611df5565b9050919050565b7f45524332303a20617070726f766520746f20746865207a65726f20616464726560008201527f7373000000000000000000000000000000000000000000000000000000000000602082015250565b6000611e946022836112ff565b9150611e9f82611e38565b604082019050919050565b60006020820190508181036000830152611ec381611e87565b9050919050565b7f45524332303a20696e73756666696369656e7420616c6c6f77616e6365000000600082015250565b6000611f00601d836112ff565b9150611f0b82611eca565b602082019050919050565b60006020820190508181036000830152611f2f81611ef3565b9050919050565b7f45524332303a207472616e736665722066726f6d20746865207a65726f20616460008201527f6472657373000000000000000000000000000000000000000000000000000000602082015250565b6000611f926025836112ff565b9150611f9d82611f36565b604082019050919050565b60006020820190508181036000830152611fc181611f85565b9050919050565b7f45524332303a207472616e7366657220746f20746865207a65726f206164647260008201527f6573730000000000000000000000000000000000000000000000000000000000602082015250565b60006120246023836112ff565b915061202f82611fc8565b604082019050919050565b6000602082019050818103600083015261205381612017565b9050919050565b7f45524332303a207472616e7366657220616d6f756e742065786365656473206260008201527f616c616e63650000000000000000000000000000000000000000000000000000602082015250565b60006120b66026836112ff565b91506120c18261205a565b604082019050919050565b600060208201905081810360008301526120e5816120a9565b9050919050565b7f4f776e61626c653a2063616c6c6572206973206e6f7420746865206f776e6572600082015250565b60006121226020836112ff565b915061212d826120ec565b602082019050919050565b6000602082019050818103600083015261215181612115565b9050919050565b7f45524332303a206d696e7420746f20746865207a65726f206164647265737300600082015250565b600061218e601f836112ff565b915061219982612158565b602082019050919050565b600060208201905081810360008301526121bd81612181565b905091905056fea26469706673582212201237f0b63272e7710ba14bc2cdf617ef7d6ee1d39b855722b69f5cc97386d61564736f6c63430008110033",
  "linkReferences": {},
  "deployedLinkReferences": {}
}